{
  "contractName": "RandomNumberConsumer",
  "abi": [
    {
      "inputs": [],
      "stateMutability": "nonpayable",
      "type": "constructor"
    },
    {
      "inputs": [],
      "name": "fee",
      "outputs": [
        {
          "internalType": "uint256",
          "name": "",
          "type": "uint256"
        }
      ],
      "stateMutability": "view",
      "type": "function"
    },
    {
      "inputs": [],
      "name": "keyHash",
      "outputs": [
        {
          "internalType": "bytes32",
          "name": "",
          "type": "bytes32"
        }
      ],
      "stateMutability": "view",
      "type": "function"
    },
    {
      "inputs": [],
      "name": "randomResult",
      "outputs": [
        {
          "internalType": "uint256",
          "name": "",
          "type": "uint256"
        }
      ],
      "stateMutability": "view",
      "type": "function"
    },
    {
      "inputs": [
        {
          "internalType": "bytes32",
          "name": "requestId",
          "type": "bytes32"
        },
        {
          "internalType": "uint256",
          "name": "randomness",
          "type": "uint256"
        }
      ],
      "name": "rawFulfillRandomness",
      "outputs": [],
      "stateMutability": "nonpayable",
      "type": "function"
    },
    {
      "inputs": [],
      "name": "getRandomNumber",
      "outputs": [
        {
          "internalType": "bytes32",
          "name": "requestId",
          "type": "bytes32"
        }
      ],
      "stateMutability": "nonpayable",
      "type": "function"
    }
  ],
  "bytecode": "0x60c060405234801561001057600080fd5b5073b3dccb4cf7a26f6cf6b120cf5a73875b7bbc655b7301be23585060835e02b77ef475b0cc51aa1e07098173ffffffffffffffffffffffffffffffffffffffff1660a08173ffffffffffffffffffffffffffffffffffffffff1660601b815250508073ffffffffffffffffffffffffffffffffffffffff1660808173ffffffffffffffffffffffffffffffffffffffff1660601b8152505050507f2ed0feb3e7fd2022120aa84fab1945545a9f2ffc9076fd6156fa96eaff4c131160001b60018190555067016345785d8a000060028190555060805160601c60a05160601c6109fe61011c6000396000818160fe01526102eb01526000818161019f01526102af01526109fe6000f3fe608060405234801561001057600080fd5b50600436106100575760003560e01c806342619f661461005c57806361728f391461007a57806394985ddd14610098578063dbdff2c1146100b4578063ddca3f43146100d2575b600080fd5b6100646100f0565b604051610071919061078f565b60405180910390f35b6100826100f6565b60405161008f91906106c6565b60405180910390f35b6100b260048036038101906100ad91906104fa565b6100fc565b005b6100bc610198565b6040516100c991906106c6565b60405180910390f35b6100da61029a565b6040516100e7919061078f565b60405180910390f35b60035481565b60015481565b7f000000000000000000000000000000000000000000000000000000000000000073ffffffffffffffffffffffffffffffffffffffff163373ffffffffffffffffffffffffffffffffffffffff161461018a576040517f08c379a00000000000000000000000000000000000000000000000000000000081526004016101819061076f565b60405180910390fd5b61019482826102a0565b5050565b60006002547f000000000000000000000000000000000000000000000000000000000000000073ffffffffffffffffffffffffffffffffffffffff166370a08231306040518263ffffffff1660e01b81526004016101f6919061066d565b60206040518083038186803b15801561020e57600080fd5b505afa158015610222573d6000803e3d6000fd5b505050506040513d601f19601f82011682018060405250810190610246919061053a565b1015610287576040517f08c379a000000000000000000000000000000000000000000000000000000000815260040161027e9061074f565b60405180910390fd5b6102956001546002546102ab565b905090565b60025481565b806003819055505050565b60007f000000000000000000000000000000000000000000000000000000000000000073ffffffffffffffffffffffffffffffffffffffff16634000aea07f00000000000000000000000000000000000000000000000000000000000000008486600060405160200161031f9291906106e1565b6040516020818303038152906040526040518463ffffffff1660e01b815260040161034c93929190610688565b602060405180830381600087803b15801561036657600080fd5b505af115801561037a573d6000803e3d6000fd5b505050506040513d601f19601f8201168201806040525081019061039e91906104cd565b5060006103c0846000306000808981526020019081526020016000205461040a565b90506001600080868152602001908152602001600020546103e191906107d7565b600080868152602001908152602001600020819055506104018482610446565b91505092915050565b600084848484604051602001610423949392919061070a565b6040516020818303038152906040528051906020012060001c9050949350505050565b6000828260405160200161045b929190610641565b60405160208183030381529060405280519060200120905092915050565b60008151905061048881610983565b92915050565b60008135905061049d8161099a565b92915050565b6000813590506104b2816109b1565b92915050565b6000815190506104c7816109b1565b92915050565b6000602082840312156104e3576104e26108f5565b5b60006104f184828501610479565b91505092915050565b60008060408385031215610511576105106108f5565b5b600061051f8582860161048e565b9250506020610530858286016104a3565b9150509250929050565b6000602082840312156105505761054f6108f5565b5b600061055e848285016104b8565b91505092915050565b6105708161082d565b82525050565b61057f8161084b565b82525050565b6105966105918261084b565b6108b2565b82525050565b60006105a7826107aa565b6105b181856107b5565b93506105c181856020860161087f565b6105ca816108fa565b840191505092915050565b60006105e2602b836107c6565b91506105ed8261090b565b604082019050919050565b6000610605601f836107c6565b91506106108261095a565b602082019050919050565b61062481610875565b82525050565b61063b61063682610875565b6108bc565b82525050565b600061064d8285610585565b60208201915061065d828461062a565b6020820191508190509392505050565b60006020820190506106826000830184610567565b92915050565b600060608201905061069d6000830186610567565b6106aa602083018561061b565b81810360408301526106bc818461059c565b9050949350505050565b60006020820190506106db6000830184610576565b92915050565b60006040820190506106f66000830185610576565b610703602083018461061b565b9392505050565b600060808201905061071f6000830187610576565b61072c602083018661061b565b6107396040830185610567565b610746606083018461061b565b95945050505050565b60006020820190508181036000830152610768816105d5565b9050919050565b60006020820190508181036000830152610788816105f8565b9050919050565b60006020820190506107a4600083018461061b565b92915050565b600081519050919050565b600082825260208201905092915050565b600082825260208201905092915050565b60006107e282610875565b91506107ed83610875565b9250827fffffffffffffffffffffffffffffffffffffffffffffffffffffffffffffffff03821115610822576108216108c6565b5b828201905092915050565b600061083882610855565b9050919050565b60008115159050919050565b6000819050919050565b600073ffffffffffffffffffffffffffffffffffffffff82169050919050565b6000819050919050565b60005b8381101561089d578082015181840152602081019050610882565b838111156108ac576000848401525b50505050565b6000819050919050565b6000819050919050565b7f4e487b7100000000000000000000000000000000000000000000000000000000600052601160045260246000fd5b600080fd5b6000601f19601f8301169050919050565b7f4e6f7420656e6f756768204c494e4b202d2066696c6c20636f6e74726163742060008201527f7769746820666175636574000000000000000000000000000000000000000000602082015250565b7f4f6e6c7920565246436f6f7264696e61746f722063616e2066756c66696c6c00600082015250565b61098c8161083f565b811461099757600080fd5b50565b6109a38161084b565b81146109ae57600080fd5b50565b6109ba81610875565b81146109c557600080fd5b5056fea264697066735822122082d91338975389d806e4f80455c59e68371670ac704e4f49062df66ac3e877c664736f6c63430008060033",
  "immutableReferences": {
    "266": [
      {
        "length": 32,
        "start": 415
      },
      {
        "length": 32,
        "start": 687
      }
    ],
    "268": [
      {
        "length": 32,
        "start": 254
      },
      {
        "length": 32,
        "start": 747
      }
    ]
  },
  "source": "// SPDX-License-Identifier: MIT\npragma solidity ^0.8.6;\n\nimport \"./VRFConsumerBase.sol\";\n\ncontract RandomNumberConsumer is VRFConsumerBase {\n    bytes32 public keyHash; //For demonstration purposes we switched this variable from internal to public\n    uint256 public fee; //For demo purposes we switched this variable from internal to public\n    uint256 public randomResult;\n\n    constructor()\n        VRFConsumerBase(\n            0xb3dCcb4Cf7a26f6cf6B120Cf5A73875B7BBc655B, // VRF Coordinator (Set to Rinkeby Currently)\n            0x01BE23585060835E02B77ef475b0Cc51aA1e0709 // LINK Token (Set to Rinkeby Currently)\n        )\n    {\n        keyHash = 0x2ed0feb3e7fd2022120aa84fab1945545a9f2ffc9076fd6156fa96eaff4c1311;\n        fee = 0.1 * 10**18; // 0.1 LINK (Varies by network)\n    }\n\n    function getRandomNumber() public returns (bytes32 requestId) {\n        require(\n            LINK.balanceOf(address(this)) >= fee,\n            \"Not enough LINK - fill contract with faucet\"\n        );\n        return requestRandomness(keyHash, fee);\n    }\n\n    function fulfillRandomness(bytes32 requestId, uint256 randomness)\n        internal\n        override\n    {\n        randomResult = randomness;\n    }\n\n    // function withdrawLink() external {} - Implement a withdraw function to avoid locking your LINK in the contract\n}\n",
  "sourcePath": "/Users/josephdeangeloi/Documents/Github/ChainLink_VRF_Randomness/contracts/RandomNumberConsumer.sol",
  "compiler": {
    "name": "solc",
    "version": "0.8.6+commit.11564f7e.Emscripten.clang"
  },
  "schemaVersion": "3.4.3",
  "updatedAt": "2022-01-07T22:45:16.714Z",
  "devdoc": {
    "kind": "dev",
    "methods": {},
    "version": 1
  },
  "userdoc": {
    "kind": "user",
    "methods": {},
    "version": 1
  }
}